:020000040000FA
:100000000C94FE000C9426010C9426010C942601FD
:100010000C9426010C9426010C9426010C942601C4
:100020000C9426010C9426010C9426010C942601B4
:100030000C9426010C9426010C9426010C942601A4
:100040000C9407140C9426010C94D5130C94AF1344
:100050000C9426010C9426010C9426010C94260184
:100060000C9451140C9426014E414E494E4954595A
:10007000494E46CDCCCC3D0AD7233C17B7D1387773
:10008000CC2B329595E6241FB14F0A000020410089
:1000900000C84200401C4620BCBE4CCA1B0E5AAED3
:1000A000C59D7400407A10F35A00A0724E180900E2
:1000B00010A5D4E80000E87648170000E40B5402CD
:1000C0000000CA9A3B000000E1F505000080969808
:1000D00000000040420F000000A086010000001058
:1000E0002700000000E8030000000064000000009A
:1000F000000A00000000000100000000002C76D87B
:1001000088DC674F0823DFC1DFAE59E1B1B796E560
:10011000E3E453C63AE651997696E8E6C28426EBC4
:10012000898C9B62ED407C6FFCEFBC9C9F40F2BAD7
:10013000A56FA5F490055A2AF75C936B6CF9676D6F
:10014000C11BFCE0E40D47FEF520E6B500D0ED90C4
:100150002E0300943577050080841E080000204E91
:100160000A000000C80C333333330F986E1283112A
:1001700041EF8D2114893BE65516CFFEE6DB18D101
:10018000844B381BF77C1D901DA4BBE424203284D3
:10019000725E228100C9F124ECA1E53D2700000038
:1001A00000240027002A0000000000250028002B62
:1001B00000000000002300260029000404040404B9
:1001C0000404040202020202020303030303030104
:1001D00002040810204080010204081020010204DB
:1001E00008102000000008000201000003040700BE
:1001F00000000000000000007817311F11241FBE0E
:10020000CFEFD8E0DEBFCDBF24E0ACE4B2E001C068
:100210001D92A13DB207E1F712E0A0E0B1E0E4ECED
:10022000F4E502C005900D92AC34B107D9F710E0A7
:10023000CDEFD0E004C02197FE010E942328CC3FDF
:10024000D107C9F70E9423180C94552A0C9400007A
:100250008091B6029091B702891B990B08952F9255
:100260003F924F925F926F927F928F929F92AF9246
:10027000BF92CF92DF92EF92FF920F931F93CF9393
:10028000DF93CDB7DEB7AA970FB6F894DEBF0FBEE7
:10029000CDBF0D871D8B298F3A8F4B8F5C8F6F8F52
:1002A0007BA3FE8EED8EE0914604F0914704892BEE
:1002B00021F0E0914804F0914904FF27EE0FFF1F61
:1002C000EE0FFF1FE65BFB4F60817181828193819E
:1002D00024E630E040E050E00E940127522E632ED9
:1002E000742E852E962E7A8B898B492E8601750168
:1002F000110FEE08FE2C87019501A6016E2D7E2DB3
:100300008E2D9E2D0FE10E94CC27A12CEAECBE2E53
:10031000FAE9CF2EABE3DA2EE12CF12C00E010E06D
:100320000E942E27A52CB62CC72CD82CE92CFA8895
:100330000989142D0E94A9260FE10E94E72729832D
:100340003A834B835C836D837E838F839887298177
:100350003A814B815C81550F220B322FA9012987ED
:100360003A874B875C87252D362D472D582D692DD3
:100370007F2D8989942DA980BA80CB80DC80E98487
:10038000FE2C0E2D1E2D0E94022829833987498BB1
:100390005A8B6B8B7C8B1C016D847D88898C9A8C2D
:1003A0003C8D3D8B4F8C5BA09301A4016B8D7D89AF
:1003B000C201211534404B46544F644171058105FB
:1003C000910569F060F0612C24E0722E3BE6832EEB
:1003D00044EF942EB4E1BB8F1D8A412C512CEB8D40
:1003E000EF8F9301A4016E2F7D89C201211538453D
:1003F0004744584F6D4071058105910560F4612CAB
:1004000008E5702E87E4882E98EF992E2DE02F8F27
:100410001D8A412C512CA980B984C988DA88EB88BF
:10042000FC8881019301A4016F8D7D89C2010E9426
:100430005F27298F3A8F4B8F5C8F2D873E874F87A1
:10044000588B8D859E85AF85B8891FE0A12E0F97AB
:10045000A105B10558F02D853E854F8558892B356E
:10046000310541055105B8F0BAE5AB2EB12CC12CD0
:10047000D12CE12CF12C00E010E02981398549894B
:100480005A896B897C89C1010E94A92639014A01D8
:100490006F8F7D8B2C01A980B984C988DA88EB889D
:1004A000FC8881019301A4016F8D7D89C2010E94A6
:1004B0005D27E0E4AE2EF2E4BF2EAFE0CA2ED12CD1
:1004C000E12CF12C00E010E00E94A926A980B9845B
:1004D000C988DA88EB88FC8881010E945F2749017E
:1004E0004CA35BA3C901DA0121E030E040E050E019
:1004F0000097A105B10521F020E432E44FE050E07F
:100500002D8B3E8B4F8B588FBC01CD0127E0660FA2
:10051000771F881F991F2A95D1F72D893E894F890A
:10052000588D0E94872629013A016F8F78A389A3ED
:100530009AA3A980B984C988DA88EB88FC888101EC
:1005400094014CA15BA160E070E080E090E00E942B
:10055000A9262BA33CA34DA35EA36FA378A789A7CD
:100560009AA78D859E85AF85B88937E0880F991F3A
:10057000AA1FBB1F3A95D1F79250A109B109840D6A
:10058000951DA61DB71DED8DFE8D80839183A283E1
:10059000B3832F8D38A149A15AA124833583468383
:1005A00057832D893E894F89588D2087318742870F
:1005B0005387298D3A8D4B8D5C8D60E070E080E033
:1005C00090E00E94A92629013A014B01898799836D
:1005D0008D899E89AF89B88D5C016D01E12CF12C6C
:1005E00000E010E02BA13CA14DA15EA16FA178A578
:1005F00089A59AA50E945F2759016A017B018C0198
:100600009201A301B401898599810E940228AA96CA
:100610000FB6F894DEBF0FBECDBFDF91CF911F9113
:100620000F91FF90EF90DF90CF90BF90AF909F9091
:100630008F907F906F905F904F903F902F90089594
:10064000DF92EF92FF920F931F93CF93DF93FC0102
:10065000E080F18002811381D481C581B681D78089
:100660009701A8016D2F7C2F8B2F9D2D2859384283
:100670004C415109610971098109910927393842B1
:100680004C415105610571058105910509F0D0F4D2
:100690009701A8016D2F7C2F8B2F9D2D07E00E94C5
:1006A000CC2720833183428353836483758386837D
:1006B000978387E0DF91CF911F910F91FF90EF908B
:1006C000DF9008959701A8016D2F7C2F8B2F9D2D12
:1006D0002053314548435109610971098109910944
:1006E0002F3231454843510561057105810591055A
:1006F00009F098F49701A8016D2F7C2F8B2F9D2D69
:1007000006E00E94CC272083318342835383648395
:1007100075838683978386E0CDCF9701A8016D2FDF
:100720007C2F8B2F9D2D2056324A4047510961095D
:100730007109810991092F35324A404751056105F8
:1007400071058105910509F098F49701A8016D2FB5
:100750007C2F8B2F9D2D05E00E94CC272083318399
:1007600042835383648375838683978385E0A2CF16
:100770009701A8016D2F7C2F8B2F9D2D205C344479
:10078000414E510961097109810991092F3B344496
:10079000414E5105610571058105910509F098F4F7
:1007A0009701A8016D2F7C2F8B2F9D2D04E00E94B7
:1007B000CC2720833183428353836483758386836C
:1007C000978384E077CF9701A8016D2F7C2F8B2F23
:1007D0009D2D20583948424C5140610971098109C9
:1007E00091092F373948424C514061057105810507
:1007F000910509F098F49701A8016D2F7C2F8B2F9C
:100800009D2D03E00E94CC272083318342835383B4
:10081000648375838683978383E04CCF9701A80117
:100820006D2F7C2F8B2F9D2D3351454853406109EF
:100830007109810991092F3F3241454853406105B3
:1008400071058105910509F098F49701A8016D2FB4
:100850007C2F8B2F9D2D02E00E94CC27208331839B
:1008600042835383648375838683978382E022CF98
:100870009701A8016D2F7C2F8B2F9D2D36524A405A
:10088000574061097109810991092F3F35424A405A
:100890005740610571058105910509F098F49701AC
:1008A000A8016D2F7C2F8B2F9D2D01E00E94CC275E
:1008B0002083318342835383648375838683978344
:1008C00081E0F8CE80E0F6CE2F923F924F925F9279
:1008D0006F927F928F929F92AF92BF92CF92DF9250
:1008E000EF92FF920F931F93CF93DF93CDB7DEB7B5
:1008F0006C970FB6F894DEBF0FBECDBF322E3D878A
:10090000242E5E872B013C01A982BF86C88AD98A22
:10091000EA8AFB8A0C8B1D8B988E8F8A211501EC3D
:1009200030070AE140070DE3500705E06007710555
:100930008105910509F0A0F52F3710EF31071AEF67
:10094000410712E05107610571058105910509F024
:1009500008F4B4C12F3F354D41415E4763407105F6
:100960008105910509F008F48FC029813F854889E8
:1009700059896A897B898C899D89A0E099249394FF
:100980000E94172809F08EC011E01E8B94E0892E7A
:10099000912CA12CB12C89869A86AB86BC862FC05F
:1009A000312CB1ECBD872AE1222EEDE3EE8735E054
:1009B000432E512C612C712CD8CFA32CBD84C22C7A
:1009C000DE847201830120E034E04BE654EF64E101
:1009D00070E080E090E00E945F27122FB32FF42F89
:1009E000E52FA7E00E94172821F416E0B0E0F0E020
:1009F000E0E0CF011987BA879B87EC871E8A89843C
:100A00009A84AB84BC84A501940160E070E0CB01C2
:100A1000A32CBD84C22CDE847201830129833A8316
:100A20004B835C836D837E838F83988760E070E067
:100A300080E090E00E94A92629833F87488B598B4C
:100A40006A8B7B8B8C8B9D8B0E89C12CD12C760174
:100A5000C39440E050E0BA01013009F0A9C0AF8969
:100A6000B88D1D921D921D921C921397FD01148248
:100A700015821682178281E090E0A0E0B0E08087C6
:100A80009187A287B387DEC029813F85488959892C
:100A90006A897B898C899D89A0E00E94172809F4C6
:100AA0008CCF912CA32CBD84C22CDE8472018301D7
:100AB00029813F85488959896A897B898C899D89E3
:100AC0000E945F2729873A874B875C8729853A856B
:100AD0004B855C8506E0A02EB12C26303105410502
:100AE000510568F089859A85AB85BC85893097402A
:100AF000A105B105D0F0B8E0AB2E17E0B12EC12CA6
:100B0000D12CE12CF12C00E010E029813F854889AF
:100B100059896A897B898C899D890E945F27322E39
:100B20003D87242E5E872B013C01A32CBD84C22C63
:100B3000DE847201830129813F85488959896A8948
:100B40007B898C899D890E945D27E0E4AE2EF2E4CA
:100B5000BF2EAFE0CA2ED12CE12CF12C00E010E02A
:100B60000E94A926A32CBD84C22CDE8472018301BD
:100B70000E945F27A32FF42FE52F422F5A2F6F2FAC
:100B80007E2FA0E4CA2EA2E4DA2EAFE0EA2EF12CEA
:100B9000411551056105710521F4C12CD12C760157
:100BA000C394AA24A3949A1409F46DC001E00E8B97
:100BB000CB01BA0117E0660F771F881F991F1A959E
:100BC000D1F7A70196010E948726298F3A8F4B8F74
:100BD0005C8F89849A84AB84BC8407E0880C991C60
:100BE000AA1CBB1C0A95D1F795018401125021095A
:100BF000310948015901298D3A8D4B8D5C8D280DA5
:100C0000391D4A1D5B1DAF89B88D2D933D934D93C2
:100C10005C931397FD01648375838683978318968D
:100C2000CD92DD92ED92FC921B978E88882051F038
:100C300039829D849F86288AAE84A98A4A8A5B8AE3
:100C40006C8A7D8A29813F85488959896A897B898F
:100C50008C899D896C960FB6F894DEBF0FBECDBF10
:100C6000DF91CF911F910F91FF90EF90DF90CF9088
:100C7000BF90AF909F908F907F906F905F904F90BC
:100C80003F902F900895AF89B88D1D921D921D92AF
:100C90001C921397FD01148215821682178281E03F
:100CA00090E0A0E0B0E080879187A287B387398287
:100CB000FD85FF87288A8E84898AC0CF29813F8558
:100CC000488959896A897B898C899D89A0E0E0E8F7
:100CD0003E2EF0EFFD87FAEF2F2E02E00E87412C1B
:100CE000512C612C712C0E94172809F0DACE18E0E3
:100CF000B7E07DCEDF92EF92FF920F931F93CF93D9
:100D0000DF93FC01E080F18002811381D481C581F1
:100D1000B681D7809701A8016D2F7C2F8B2F9D2D39
:100D200020583A41464051096109710981099109E8
:100D30002F373A41464051056105710581059105FE
:100D400009F0D0F49701A8016D2F7C2F8B2F9D2DDA
:100D500007E00E94CC27208331834283538364833E
:100D600075838683978387E0DF91CF911F910F91E1
:100D7000FF90EF90DF9008959701A8016D2F7C2FD1
:100D80008B2F9D2D35534C40510961097109810903
:100D900091092F3F34434C40510561057105810590
:100DA000910509F098F49701A8016D2F7C2F8B2FE6
:100DB0009D2D06E00E94CC272083318342835383FC
:100DC000648375838683978386E0CECF9701A801DD
:100DD0006D2F7C2F8B2F9D2D3A564841510961096B
:100DE0007109810991092F3F394648415105610533
:100DF00071058105910509F098F49701A8016D2FFF
:100E00007C2F8B2F9D2D05E00E94CC2720833183E2
:100E100042835383648375838683978385E0A4CF5D
:100E20009701A8016D2F7C2F8B2F9D2D345D4043A2
:100E3000510961097109810991092F3F334D4043DF
:100E40005105610571058105910509F098F4970137
:100E5000A8016D2F7C2F8B2F9D2D04E00E94CC27A5
:100E6000208331834283538364837583868397838E
:100E700084E07ACF9701A8016D2F7C2F8B2F9D2DB9
:100E8000385A4146510961097109810991092F3F79
:100E9000374A41465105610571058105910509F003
:100EA00098F49701A8016D2F7C2F8B2F9D2D03E0C7
:100EB0000E94CC27208331834283538364837583CC
:100EC0008683978383E050CF9701A8016D2F7C2FF5
:100ED0008B2F9D2D3055434C5109610971098109B2
:100EE00091092F3F3F44434C510561057105810530
:100EF000910509F098F49701A8016D2F7C2F8B2F95
:100F00009D2D02E00E94CC272083318342835383AE
:100F1000648375838683978382E026CF9701A80137
:100F20006D2F7C2F8B2F9D2D305A464851406109E3
:100F30007109810991092F3F3F4946485140610598
:100F400071058105910509F098F49701A8016D2FAD
:100F50007C2F8B2F9D2D01E00E94CC272083318395
:100F600042835383648375838683978381E0FCCEB9
:100F700080E0FACE0895AF92BF92CF92DF92EF92C7
:100F8000FF920F931F93CF93DF936C017B018B0133
:100F9000040F151FEB015E01AE18BF08C017D10783
:100FA00059F06991D601ED91FC910190F081E02D0D
:100FB000C6010995892B79F7C501DF91CF911F9162
:100FC0000F91FF90EF90DF90CF90BF90AF9008957A
:100FD00008950895FC01538D448D252F30E0842F12
:100FE00090E0821B930B541710F0CF960895019751
:100FF0000895FC01918D828D981761F0A28DAE0F3E
:10100000BF2FB11D5D968C91928D9F5F9F73928FC4
:1010100090E008958FEF9FEF08952FB7F894809197
:10102000A2029091A302A091A402B091A5022FBFA9
:101030008093300390933103A0933203B093330332
:1010400088E293E00E94F90797FF26C02FB7F89433
:101050008091A2029091A302A091A402B091A50256
:101060002FBF409130035091310360913203709152
:101070003303841B950BA60BB70B40912C035091A7
:101080002D0360912E0370912F0384179507A607F7
:10109000B707B0F28FEF9FEF0895FC01918D828D1D
:1010A000981731F0828DE80FF11D858D90E008953D
:1010B0008FEF9FEF0895FC01918D228D892F90E095
:1010C000805C9F4F821B91098F739927089588E256
:1010D00093E00E945B0821E0892B09F420E0822F35
:1010E0000895FC01A48DA80FB92FB11DA35ABF4FBD
:1010F0002C91848D90E001968F739927848FA68917
:10110000B7892C93A089B1898C91837080648C936A
:10111000938D848D981306C00288F389E02D808119
:101120008F7D80830895EF92FF920F931F93CF934B
:10113000DF93EC0181E0888F9B8D8C8D98131AC012
:10114000E889F989808185FF15C09FB7F894EE89F9
:10115000FF896083E889F989808183708064808356
:101160009FBF81E090E0DF91CF911F910F91FF90A1
:10117000EF900895F62E0B8D10E00F5F1F4F0F7349
:101180001127E02E8C8D8E110CC00FB607FCFACF04
:10119000E889F989808185FFF5CFCE010E94710829
:1011A000F1CFEB8DEC0FFD2FF11DE35AFF4FF082D5
:1011B0009FB7F8940B8FEA89FB8980818062CFCF3B
:1011C000CF93DF93EC01888D8823B9F0AA89BB897E
:1011D000E889F9898C9185FD03C0808186FD0DC069
:1011E0000FB607FCF7CF8C9185FFF2CF808185FF8A
:1011F000EDCFCE010E947108E9CFDF91CF91089524
:10120000833081F028F4813099F08230A9F008957C
:101210008730A9F08830C9F08430B1F48091800023
:101220008F7D03C0809180008F7780938000089528
:1012300084B58F7784BD089584B58F7DFBCF809171
:10124000B0008F778093B00008958091B0008F7DBB
:10125000F9CFCF93DF93282F30E0F901ED51FE4F06
:101260008491F901E153FE4FD491F901E554FE4F09
:10127000C491CC23A1F081110E940009EC2FF0E071
:10128000EE0FFF1FEF54FE4FA591B491EC91ED23AB
:1012900081E090E009F480E0DF91CF91089580E053
:1012A00090E0FACF1F93CF93DF93282F30E0F9011E
:1012B000ED51FE4F8491F901E153FE4FD491F901B4
:1012C000E554FE4FC491CC23A9F0162F81110E9442
:1012D0000009EC2FF0E0EE0FFF1FE955FE4FA5913E
:1012E000B4918FB7F894EC91111108C0D095DE231A
:1012F000DC938FBFDF91CF911F910895DE2BF8CF44
:1013000060E088E00E94520960E08BE00E94520990
:1013100060E08AE00E94520960E089E00E94520980
:1013200061E088E00E94520960E088E00E94520972
:1013300061E08BE00E94520960E08BE00E9452095C
:1013400061E08AE00E94520960E08AE00C94520950
:10135000CF93DF9390E0FC01E153FE4F249185543D
:101360009E4FFC0184918823D1F090E0880F991F53
:10137000FC01E356FE4FA591B491FC01E955FE4FE7
:10138000C591D491623071F49FB7F8943C91822F4B
:10139000809583238C93E8812E2B28839FBFDF9138
:1013A000CF9108958FB7F894EC912E2B2C938FBF8B
:1013B000F6CF3FB7F8948091910290919202A0915C
:1013C0009302B091940226B5A89B05C02F3F19F057
:1013D0000196A11DB11D3FBFBA2FA92F982F8827B5
:1013E000BC01CD01620F711D811D911D42E0660F90
:1013F000771F881F991F4A95D1F708958F929F9262
:10140000AF92BF92CF92DF92EF92FF924B015C01BD
:101410000E94D9096B017C010E94D9096C197D09D0
:101420008E099F09683E734081059105A8F321E06C
:10143000821A9108A108B10888EEC80E83E0D81E70
:10144000E11CF11C81149104A104B10429F7FF905F
:10145000EF90DF90CF90BF90AF909F908F900895C6
:1014600020916D02260F3327331F21323105ECF412
:101470002091FE02FC0190E080E0243069F082E0DF
:101480000895A0916D022191AC01435B5D4FA40FC3
:10149000B52FB11D2C930196861798F380916D029C
:1014A000680F60936D0280E0089581E008951092C6
:1014B000FE0281E08093FD021092D80261E082E199
:1014C0000E94520961E083E10E945209E9EBF0E0D9
:1014D00080818E7F808380818D7F808388E480936C
:1014E000B80085E48093BC000895CF93DF9391E02A
:1014F00090934C028823B9F0C091B800D091BA0003
:101500008091BC008A7B8093BC0060E082E10E94F5
:10151000520960E083E10E9452090E94570AD09369
:10152000BA00C093B800DF91CF9108958F929F9237
:10153000AF92BF92CF92DF92EF92FF920F931F93E1
:10154000CF93DF93D0912703D13208F0D7C0182F63
:10155000C09126030E94D9096B017C018091FE0293
:1015600081116BC082E08093FE021093FD028FEF29
:101570008093FC021092FB02D093FA02A6E0B3E043
:10158000EAEDF2E080E0D81391C01092D902809188
:10159000D902CC0FC82BC093D9028091D8028130D8
:1015A00009F088C01092D8020E94D9096B017C0111
:1015B0008091D9028093BB00809100039091010338
:1015C000A0910203B0910303892B8A2B8B2BA1F0EE
:1015D0000E94D90900910003109101032091020398
:1015E000309103036C197D098E099F0906171707AF
:1015F0002807390708F442C08091BC0083FDD8CF8A
:1016000085EC8093BC000E94D9096B017C0180911C
:10161000FE02823009F450C08091FC028F3F09F431
:101620006FC08091FC02803209F46CC08091FC0292
:10163000803309F469C084E026C080910003909152
:101640000103A0910203B0910303892B8A2B8B2BFA
:1016500009F484CF0E94D90980900003909001037F
:10166000A0900203B09003036C197D098E099F09B5
:1016700086169706A806B90608F070CF8091FF027B
:101680000E94750A85E010920503109227031092BC
:101690000403DF91CF911F910F91FF90EF90DF90A6
:1016A000CF90BF90AF909F908F9008959D91919310
:1016B0008F5F69CF85EEA5CF8091000390910103E4
:1016C000A0910203B0910303892B8A2B8B2B09F481
:1016D0009ECF0E94D909009100031091010320912F
:1016E0000203309103036C197D098E099F090617C7
:1016F00017072807390708F08ACFC0CF81E0C3CF8A
:1017000080E0C1CF82E0BFCF83E0BDCF0895E091FC
:10171000B7028091B602E81730F4F0E0E854FD4FCC
:10172000808190E008958FEF9FEF08959091B70228
:101730008091B6022FEF3FEF981748F4E92FF0E0C1
:10174000E854FD4F208130E09F5F9093B702C901BC
:101750000895CF92DF92EF92FF920F931F93CF9352
:10176000DF937C01CB018A0120910403222389F0BD
:10177000EB016B01C40ED51ECC15DD0569F0699136
:10178000D701ED91FC910190F081E02DC701099501
:10179000F3CF642F0E94300AC801DF91CF911F91CF
:1017A0000F91FF90EF90DF90CF900895CF93DF934C
:1017B0001F92CDB7DEB76983209104032223F9F08D
:1017C00020912703203258F021E030E0FC013383E0
:1017D000228390E080E00F90DF91CF910895809177
:1017E0000503E82FF0E0EA5FFC4F998190838F5F5B
:1017F000809305038093270381E090E0ECCF61E0C4
:10180000CE0101960E94300AF7CFCF93C62F909158
:101810005B0421E0209304039093260310920503B8
:1018200010922703682F85EC93E00E94D60B6C2F53
:1018300085EC93E00E94D60B81E0CF910C94960A40
:10184000EF92FF920F931F93CF93DF93062F7A01AE
:1018500090915B0421E0209304039093260310925F
:10186000050310922703682F85EC93E00E94D60BA6
:10187000E70110E0CE018E199F098017910734F41B
:10188000699185EC93E00E94D60BF4CF81E0DF9163
:10189000CF911F910F91FF90EF900C94960A90E0DA
:1018A00080E00895CF92DF92EF92FF920F931F9303
:1018B000CF9390915B0421E020930403909326033F
:1018C0001092050310922703682F85EC93E00E9485
:1018D000D60B81E00E94960AC0915B040E94D90950
:1018E0006B017C018091FE02811165C081E08093D3
:1018F000FE021092FD029FEF9093FC021092FB02F9
:101900001092FA028093D9028091D902CC0FC82B91
:10191000C093D9028091D802813009F080C0109222
:10192000D8020E94D9096B017C018091D902809371
:10193000BB008091000390910103A0910203B0913C
:101940000303892B8A2B8B2BA1F00E94D9090091CC
:1019500000031091010320910203309103036C19DD
:101960007D098E099F09061717072807390708F40C
:1019700043C08091BC0083FDD8CF85EC8093BC0030
:101980000E94D9096B017C018091FE02813009F42B
:1019900048C08091FB02C1E0811102C0C091FB02EE
:1019A000EAEDF2E0A8EBB2E080E08C1751F1919102
:1019B0009D938F5FFACF8091000390910103A091D6
:1019C0000203B0910303892B8A2B8B2B09F48ACF56
:1019D0000E94D90900910003109101032091020394
:1019E000309103036C197D098E099F0906171707AB
:1019F0002807390708F076CF8091FF020E94750A08
:101A0000C0E01092B702C093B60280E09091B70296
:101A1000C91749F185EC93E00E94960BF7CF85EE4C
:101A2000ADCF8091000390910103A0910203B0918A
:101A30000303892B8A2B8B2B09F4A6CF0E94D9098B
:101A400000910003109101032091020330910303E0
:101A50006C197D098E099F09061717072807390792
:101A600008F092CFC9CFCF911F910F91FF90EF90C7
:101A7000DF90CF900895CF93DF93D82FC62F83E0C8
:101A80000E94520C61E070E001C0660FDA95EAF73F
:101A9000C13039F46095682383E0DF91CF910C94D5
:101AA000050C682BF9CF1F93CF93DF93C62F142F0C
:101AB0008A5F9E4FFC01D0818D2F0E94520C83784B
:101AC00011118C60F0E1CF9FB0011124682B8D2F94
:101AD000DF91CF911F910C94050CCF93DF93D62FFC
:101AE000C0E1C80F8C2F0E94520C682FD13031F406
:101AF00060648C2FDF91CF910C94050C6F7BF9CF34
:101B0000FF920F931F93CF93DF93EC018B01F82E7D
:101B100080E1F80E8F2D0E94520C682F01151105DF
:101B200081F46F7D8F2D0E94050CCC0FDD1FC352F9
:101B3000DC4F1A870987DF91CF911F910F91FF909A
:101B400008956062EFCFCF93DF93D82FC8E06D2F59
:101B5000617089E00E945209D69561E08BE00E9495
:101B6000520960E08BE00E945209C15081F7DF9179
:101B7000CF910895CF92DF92EF92FF920F931F9330
:101B8000CF93DF93209164043091650421303105B7
:101B900009F047C020E030E040E85FE40E94F42311
:101BA0006B017C0128E23BE64EEE5CE4609166044A
:101BB0007091670480916804909169040E941D25CA
:101BC0009B01AC01C701B6010E9489250E943E26F7
:101BD0008B01D82FC92F60E08AE00E945209802F24
:101BE0000E94A30D812F0E94A30D8D2F0E94A30D93
:101BF0008C2F0E94A30D8091640490916504813024
:101C00009105F9F480E00E94A30D61E08AE0DF9184
:101C1000CF911F910F91FF90EF90DF90CF900C9498
:101C2000520922303105B9F620E030E040E85FE4A7
:101C30000E94F4236B017C0120E539EA4BE25DE46C
:101C4000B5CF029711F781E0DECF2F923F924F92EE
:101C50005F926F927F928F929F92AF92BF92CF923C
:101C6000DF92EF92FF920F931F93CF93DF93CDB745
:101C7000DEB72D970FB6F894DEBF0FBECDBF3C0187
:101C8000C982DA82EB82FC820D831E832F83388720
:101C900049875A876B877C87BAA03C2C2D2C5E2CF9
:101CA0000D87412E922EC984DA84EB84FC8484E172
:101CB00090E00E9429288C01FC01D082C182862DEF
:101CC000880F880F880F845D0E94520CF52DF370E9
:101CD0005F2E8C7F582AF8015282238234828CE056
:101CE000F694E794D794C7948A95D1F7FC2DF07FAA
:101CF000CF2E892D8F70C82AF801C58246828D8526
:101D0000878393E06916710409F46CC0A8F5F1E0CB
:101D10006F16710409F448C082E06816710409F472
:101D200052C0A80168E08AE20E94200C6A2D90E06F
:101D300080E00E946D0D4B2D682D90E080E00E94A8
:101D4000530DC8012D960FB6F894DEBF0FBECDBF60
:101D5000DF91CF911F910F91FF90EF90DF90CF9087
:101D6000BF90AF909F908F907F906F905F904F90BB
:101D70003F902F900C94C52894E06916710409F4E3
:101D800040C0E5E06E16710461F6A80168E082E5E6
:101D90000E94200C6A2D85E090E00E946D0D4B2D75
:101DA000682D85E090E0CBCFA80168E082E30E9437
:101DB000200C6A2D81E090E00E946D0D4B2D682D66
:101DC00081E090E0BCCFA80168E08AE30E94200C8B
:101DD0006A2D82E090E00E946D0D4B2D682D82E00F
:101DE00090E0ADCFA80168E082E40E94200C6A2D4B
:101DF00083E090E00E946D0D4B2D682D83E090E014
:101E00009ECFA80168E08AE40E94200C6A2D84E03D
:101E100090E00E946D0D4B2D682D84E090E08FCFF7
:101E20002F923F924F925F926F927F928F929F92EA
:101E3000AF92BF92CF92DF92EF92FF920F931F93D8
:101E4000CF93DF93CDB7DEB72E970FB6F894DEBFF2
:101E50000FBECDBF19013A014B018D879E87280126
:101E6000012B09F073C0E0914604F0914704EE0F96
:101E7000FF1FEE0FFF1FEE5AFB4FA080B180C28004
:101E8000D380CE0101967C0189019301AB016D8560
:101E90007E8590E080E00E942F0184E190E00E9426
:101EA00029288C0189859A85AB85BC85F8019083AA
:101EB000818339814A812B81237022834383348338
:101EC0002CE0B695A795979587952A95D1F7807FB1
:101ED0002D813E819F819F70892B85833683278347
:101EE0004114510409F04BC0A80168E08AE10E9446
:101EF000200C20923604309237046092380470929D
:101F0000390480923A0490923B04FD85F0933C049E
:101F10008E8580933D04C8012E960FB6F894DEBFDF
:101F20000FBECDBFDF91CF911F910F91FF90EF902A
:101F3000DF90CF90BF90AF909F908F907F906F90E9
:101F40005F904F903F902F900C94C528E0914804EB
:101F5000F0914904EE0FFF1FEE0FFF1FEE5AFB4FEB
:101F6000A080B180C280D380FE0131967F018101C3
:101F70009A01AB016D857E8581E090E08CCF4A941B
:101F8000452849F6A80168E082E20E94200C2092D0
:101F90003E0430923F04609240047092410480926B
:101FA000420490924304ED85E0934404FE85F0934F
:101FB0004504B1CF2F923F924F925F926F927F92E2
:101FC0008F929F92AF92BF92CF92DF92EF92FF9249
:101FD0000F931F93CF93DF93CDB7DEB7E1970FB683
:101FE000F894DEBF0FBECDBF022F29A3132F3AA353
:101FF0004BA35CA36DA37EA38FA398A79801AFEF1B
:102000000E940B282E373A41464051056105710563
:102010008105910509F058F480E889A38AE18AA333
:1020200086E08BA31CA21DA21EA21FA218A629A196
:102030003AA14BA15CA16DA17EA18FA198A521150C
:10204000314C4A415D43654071058105910569F058
:1020500060F019A281EC8AA38AE18BA38DE38CA3A3
:1020600085E08DA31EA21FA218A679A0AAA00BA18D
:102070001CA1BDA1AEA1FFA1F8A4272D3A2DA80156
:102080006B2F7A2F8F2F9F2D2115344E4B405445A7
:10209000624071058105910509F008F406C1E090E0
:1020A000E603F090E70386EF482E83E0582E8DED8F
:1020B00093E09AA789A78C01F201D12C208131816C
:1020C000428153816481758186819781389621157B
:1020D000344E4B405445624071058105910559F0DD
:1020E00050F0DD2041F0D80119968D919C918E150C
:1020F0009F0509F447C1D3940E5F1F4FB6E0DB1272
:10210000DDCF80915C04811108C061E090E080E047
:102110000E943B0D81E080935C0429A13AA14BA170
:102120005CA16DA17EA18FA198A52093F6033093A9
:10213000F7034093F8035093F9036093FA03709305
:10214000FB038093FC039093FD03FE013D964F013A
:10215000A12CB12CC12CD12CE12CF12C00E010E0F1
:102160000E9464042BA73CA74DA75EA76FA778AB7E
:10217000382E292E0091E6031091E7030E94100FDC
:10218000712C612CD201EC901196FC901197129653
:10219000AC90129713960C91139714961C91149768
:1021A0001596BC91F201D680C780F8E04F0E511C05
:1021B00097014A2D502F612F7B2F8D2D9C2DA0E054
:1021C0000E94172809F455C02091E6033091E703D7
:1021D000E9A5FAA5818592852817390709F049C034
:1021E000E98EFA8EAB8E0C8F1D8FBE8FDF8EC8A24C
:1021F000CE0149960E947A0689AB298D3A8D4B8D86
:102200005C8D6D8D7E8DCE0101964C01ABA4BCA47E
:10221000CDA4DEA4EFA4F8A8032D122D8F8D98A1D4
:102220000E946404AA24A394298D3A8D4B8D5C8D61
:102230006D8D7E8D8F8D98A12F3F354D41415E472D
:10224000634071058105910509F008F4A12CAF9256
:1022500089A8C980DA80EB80FC800D811E812F81E6
:10226000388549855A856B857C85C3010E94250E7A
:102270000F90BFEF6B1A7B0AE9A5FAA53296FAA771
:10228000E9A7F6E06F16710409F07CCF8091E603B0
:102290009091E70360E2009719F0019721F460E85C
:1022A00081EB0E94050C80E06EC07092F603A09254
:1022B000F7030093F8031093F903B093FA03A09384
:1022C000FB03F093FC03F092FD0380915C04811109
:1022D00008C061E090E080E00E943B0D81E08093C7
:1022E0005C04CE0181960E947A06782EE091E60386
:1022F000F091E70329A13AA14BA15CA16DA17EA1B8
:102300008FA198A5EF2B51F5A0903604B09037041B
:10231000C0903804D0903904E0903A04F0903B0427
:1023200000913C0410913D04DE011D964D010E9478
:1023300064041F92872CA12CCD84DE84EF84F8885E
:1023400009891A892B893C894D895E896F89788D25
:1023500090E080E00E94250E0F90A5CFA0903E0453
:10236000B0903F04C0904004D0904104E0904204FB
:10237000F09043040091440410914504FE013D9601
:102380004F01D5CF81E0E1960FB6F894DEBF0FBEC6
:10239000CDBFDF91CF911F910F91FF90EF90DF9014
:1023A000CF90BF90AF909F908F907F906F905F90F5
:1023B0004F903F902F9008950F931F936093520476
:1023C000709353048093540490935504E6E3F4E02F
:1023D00020813181428153816481758110E000E068
:1023E000868197810E94100FEEE3F4E02081318115
:1023F000428153816481758101E010E0868197817B
:102400000E94100F1F910F910895CF93DF93EC015D
:1024100088819981009711F00E94C528198218823D
:102420001D821C821B821A82DF91CF910895FC01CC
:1024300080819181009711F00C94C5280895AF9286
:10244000BF92DF92EF92FF920F931F93CF93DF9390
:102450005C0106EA12E0D0E0C0E0F801D1908F0103
:102460007501EC0EFD1EC7010E94B524D81621F09F
:102470006D2DC7010E94BD242196C031D10569F799
:1024800086EA92E0DF91CF911F910F91FF90EF903C
:10249000DF90BF90AF9008950F931F93CF93DF937A
:1024A00006EA12E0CAE0D0E0CE010E94B524F801AD
:1024B00081938F012196CA31D105B1F7DF91CF9178
:1024C0001F910F9108950F931F93CF93DF938C016A
:1024D000EB01FC01808191810097E1F068817981B5
:1024E00061157105A9F0428153812C813D8142170C
:1024F000530770F00E94252A8C819D81F8019583F5
:1025000084831D821C82DF91CF911F910F910895CA
:102510000E94C52888819981F801918380838A81EE
:102520009B81938382838C819D819583848319828F
:1025300018821B821A82E5CF0F931F93CF93DF93EC
:10254000EC0188819981009759F02A813B812617F7
:10255000370730F081E0DF91CF911F910F910895FF
:102560008B016F5F7F4F0E944E29009759F099832E
:1025700088831B830A832C813D81232B59F7FC011F
:102580001082E8CF80E0E7CFEF92FF920F931F9386
:10259000CF93DF936115710541F480E0DF91CF9116
:1025A0001F910F91FF90EF90089541155105B1F0E3
:1025B0007B01EC010C811D81040F151FB8010E94E5
:1025C0009C12882351F3288139818C819D81B70128
:1025D000820F931F0E94252A1D830C8381E0DECF8A
:1025E000EF92FF920F931F93CF93DF93EC017B0148
:1025F0008A01BA010E949C1281110BC0CE010E9477
:102600000512CE01DF91CF911F910F91FF90EF90B6
:1026100008951D830C83B701888199810E94252A22
:10262000F0CFFB0101900020E9F73197AF01461B85
:10263000570B0C94F012FC0111821082138212824B
:1026400015821482FB0101900020E9F73197AF0158
:10265000461B570B0C94F0121F93CF93DF93CDB70B
:10266000DEB728970FB6F894DEBF0FBECDBF11E0DE
:1026700088E293E00E945B08892B39F160E471E005
:10268000CE0101960E941B130E940D0897FD0FC0FA
:102690008A30910561F08F83188641E050E0BE01D9
:1026A000695F7F4FCE0101960E94C412EDCFBE013B
:1026B0006F5F7F4F81ED93E00E946312CE01019620
:1026C0000E9417121093A102D3CF28960FB6F89448
:1026D000DEBF0FBECDBFDF91CF911F9108950E9445
:1026E000670881110C942C1308950C946F1385EDD9
:1026F0008093BC008091000390910103A09102039C
:10270000B09103030796A11DB11D23E0B695A795CF
:10271000979587952A95D1F72091BC0024FD03C099
:102720001092FE02089540910003509101036091C0
:10273000020370910303452B462B472B69F3009747
:10274000A105B10541F02AE22A95F1F700C00197F1
:10275000A109B109E1CF8091FF020C94750A1F9283
:102760000F920FB60F9211242F933F934F935F93C5
:102770006F937F938F939F93AF93BF93EF93FF9349
:1027800088E293E00E947108FF91EF91BF91AF91B1
:102790009F918F917F916F915F914F913F912F9179
:1027A0000F900FBE0F901F9018951F920F920FB6AB
:1027B0000F9211242F938F939F93EF93FF93E091A8
:1027C0003803F09139038081E0913E03F0913F039B
:1027D00082FD1BC09081809141038F5F8F73209198
:1027E0004203821741F0E0914103F0E0E85DFC4FC5
:1027F000958F80934103FF91EF919F918F912F913E
:102800000F900FBE0F901F9018958081F4CF1F92EC
:102810000F920FB60F9211242F933F938F939F9394
:10282000AF93BF938091A2029091A302A091A402C2
:10283000B091A5023091900223E0230F2D3758F577
:102840000196A11DB11D209390028093A202909346
:10285000A302A093A402B093A5028091910290914B
:102860009202A0919302B09194020196A11DB11D14
:102870008093910290939202A0939302B09394025A
:10288000BF91AF919F918F913F912F910F900FBE6C
:102890000F901F90189526E8230F0296A11DB11DD9
:1028A000D2CF1F920F920FB60F9211242F933F9306
:1028B0004F935F936F937F938F939F93AF93BF9348
:1028C000EF93FF938091B900887F803609F44AC066
:1028D000F0F5883209F4A7C018F5803109F49BC0DF
:1028E000B8F4882309F4F9C0883009F494C0FF9142
:1028F000EF91BF91AF919F918F917F916F915F9178
:102900004F913F912F910F900FBE0F901F901895F0
:10291000883109F488C0803251F78093FC0214C0DA
:10292000803409F49DC040F48033B9F38833F9F65C
:102930008093FC0285ECB0C0803509F485C08835F1
:1029400009F496C0883499F60E947713D0CF88395D
:1029500009F48CC038F5883729F050F4883611F026
:10296000803729F683E08093FE0210928F0257C0D1
:10297000883809F47BC0803919F0803809F0B7CF66
:1029800080918F02803208F071C0E0918F0281E067
:102990008E0F80938F028091BB00F0E0E159FD4FD4
:1029A00080833DC0803B39F0E0F4803A09F479C07F
:1029B000883A09F09CCF84E08093FE0210926E0268
:1029C00010926D02E0919702F09198020995809122
:1029D0006D0281110FC081E080936D0210924D0253
:1029E00009C0803C09F4A6CF883C09F4A3CF883BFA
:1029F00009F07DCFE0916E0281E08E0F80936E0230
:102A0000F0E0E35BFD4F80818093BB0090916E020C
:102A100080916D0229C08091D9028093BB0085EC22
:102A20008093BC0064CF9091FB028091FA029817CA
:102A300058F5E091FB0281E08E0F8093FB02F0E0FD
:102A4000E652FD4F8081E9CFE091FB0281E08E0FDD
:102A50008093FB028091BB00F0E0E652FD4F808343
:102A60009091FB028091FA029817C8F285E8D8CFBE
:102A7000E091FB0281E08E0F8093FB028091BB000E
:102A8000F0E0E652FD4F80838091FD0281115CCF22
:102A900081E08093D80284EA8093BC001092FE0209
:102AA00026CF85EC8093BC001092FE0280918F02AD
:102AB000803230F4E0918F02F0E0E159FD4F108256
:102AC00060918F0270E0E0919502F09196028FE69E
:102AD00092E0099510928F020ACF1092FC0234CF37
:102AE000CF93DF93FC014481558141155105D9F005
:102AF00061157105C1F09A016417750708F49B010F
:102B0000EC0188819981421B530B5D834C83BC018E
:102B1000620F731F0E942C2AE881F9818C819D81AC
:102B2000E80FF91F1082DF91CF910895FC01019009
:102B30000020E9F73197AF01481B590BBC0188E22F
:102B400093E00C94BB078F929F92AF92BF920F932A
:102B50001F93CF93DF93CDB7DEB7A1970FB6F8944D
:102B6000DEBF0FBECDBF19A2423008F44AE08E018D
:102B70000F5D1F4F842E912CB12CA12CA501940127
:102B80000E948726E62FB901CA01EA30F4F4E05D1D
:102B9000D801EE938D01232B242B252B79F790E080
:102BA00080E0109719F0CD010E949615A1960FB6FE
:102BB000F894DEBF0FBECDBFDF91CF911F910F9173
:102BC000BF90AF909F908F900895E95CE1CF4F92B6
:102BD0005F926F927F928F929F92AF92BF92CF92AD
:102BE000DF92EF92FF926B017C01AC019B010E948E
:102BF00082268823C1F082E391E00E9496157C0131
:102C00008EE391E00E9496158E0D9F1DFF90EF9030
:102C1000DF90CF90BF90AF909F908F907F906F90FC
:102C20005F904F90089546015701E894B7F82FEF51
:102C30003FEF4FE75FE7C501B4010E948226811193
:102C40000DC02FEF3FEF4FE75FE7C501B4010E94D2
:102C50008E2318161CF486E391E0CFCF2FEF3FEFC1
:102C60004FE75FE4C701B6010E947D2618161CF4E9
:102C70008AE391E0C2CF2FEF3FEF4FE75FECC70150
:102C8000B6010E948E2387FDF3CF20E030E0A9013A
:102C9000C701B6010E948E23B12CA12C87FF0AC068
:102CA0006DE288E293E00E9493085C01F7FAF094E9
:102CB000F7F8F0942AE037ED43EA5BE3C701B60189
:102CC0000E941D252B013C010E943E266B017C01C8
:102CD0000E9493239B01AC01C301B2010E941C25F9
:102CE0002B013C014AE0C701B6010E94A3157C01FB
:102CF000EA0CFB1C6EE288E293E00E949308E80E67
:102D0000F91E20E030E040E251E4C301B2010E942C
:102D1000F4232B013C010E943E264B01B12CA12C37
:102D20004AE0C501B4010E94A315E80EF91EC501D1
:102D3000B4010E9493239B01AC01C301B2010E9424
:102D40001C2520E030E040E251E40E94F4230E9480
:102D50003E2690E080E04AE00E94A315E80EF91EAE
:102D60004FCFCF93DF930E949615EC018EE391E055
:102D70000E9496158C0F9D1FDF91CF910895CF93E0
:102D8000DF93FC01448155816081718188E293E089
:102D90000E94BB07EC018EE391E00E9496158C0F18
:102DA0009D1FDF91CF910895209183043091840479
:102DB000232B39F421E0FC018081882361F020E09D
:102DC0000AC0BC0180917F04909180040E941C2A5B
:102DD00021E0892BA1F7822F0895CF93DF93EC0197
:102DE000FB0144815581608171810E94C41281116F
:102DF00003C0CE010E940512CE01DF91CF9108954C
:102E0000EF92FF920F931F93CF93DF93CDB7DEB76F
:102E100064970FB6F894DEBF0FBECDBF7C01CB0127
:102E2000BA018E010F5F1F4F22E044E00E94531F42
:102E3000FC0101900020E9F73197AF01481B590BC5
:102E4000BC01C7010E94C41264960FB6F894DEBF9D
:102E50000FBECDBFDF91CF911F910F91FF90EF90EB
:102E60000895EF92FF920F931F93CF93DF93CDB707
:102E7000DEB728970FB6F894DEBF0FBECDBF7C013A
:102E8000CB014AE08E010F5F1F4FB8010E949C1FCB
:102E9000F80101900020E9F73197AF01401B510B79
:102EA000B801C7010E94C41228960FB6F894DEBF7D
:102EB0000FBECDBFDF91CF911F910F91FF90EF908B
:102EC0000895CF93DF93EC01FB018617970749F034
:102ED000608171816115710541F0448155810E94C5
:102EE000F012CE01DF91CF9108950E940512F9CF23
:102EF000CF93DF9310922B0310922A0388EE93E076
:102F0000A0E0B0E080932C0390932D03A0932E03B8
:102F1000B0932F0322E131E030932903209328035B
:102F200025EC30E0309335032093340324EC30E07B
:102F3000309337032093360320EC30E0309339038D
:102F40002093380321EC30E030933B0320933A0385
:102F500022EC30E030933D0320933C0326EC30E03C
:102F600030933F0320933E0310924103109242039B
:102F700010924303109244031092C8031092C703A7
:102F80008093C9039093CA03A093CB03B093CC035F
:102F900084E291E09093C6038093C50361E471E0FD
:102FA00085EC94E00E941B1360E471E089E794E0F3
:102FB0000E941B1360E471E08FE794E00E941B13F2
:102FC000D0E0C0E060E471E0CE0187579B4F0E94E3
:102FD0001B132696CC33D105A9F785E0EDEDF3E080
:102FE000DF011D928A95E9F71092E2031092E30344
:102FF0001092E4031092E50380E680935B0480E482
:1030000098E7ADE7B1E080934A0490934B04A09316
:103010004C04B0934D041092470410924604109251
:1030200049041092480410925A0460E471E087ED5C
:1030300093E00E941B1360E471E081ED93E0DF9167
:10304000CF910C941B13CF93DF93CDB7DEB72C97A2
:103050000FB6F894DEBF0FBECDBF789484B5826002
:1030600084BD84B5816084BD85B5826085BD85B52C
:10307000816085BD80916E00816080936E001092AA
:103080008100809181008260809381008091810025
:1030900081608093810080918000816080938000B6
:1030A0008091B10084608093B1008091B000816014
:1030B0008093B00080917A00846080937A00809140
:1030C0007A00826080937A0080917A008160809398
:1030D0007A0080917A00806880937A001092C10013
:1030E000E0913803F091390382E08083E09134036A
:1030F000F09135031082E0913603F091370380E1BF
:10310000808310924003E0913C03F0913D0386E000
:103110008083E0913A03F0913B038081806180835A
:10312000E0913A03F0913B03808188608083E091D5
:103130003A03F0913B03808180688083E0913A03F9
:10314000F0913B0380818F7D80831092A10268EC17
:1031500070E080E090E00E94FE0980E09BE1A7EB38
:10316000BAE48093990290939A02A0939B02B09341
:103170009C0262E08FE00E94A80962E080E10E9468
:10318000A80962E081E10E94A80962E082E10E9450
:10319000A80961E08EE00E94A80960E08EE00E942C
:1031A000520961E08CE00E94A80961E08DE00E9474
:1031B000A8098FEF8AB990E080E00E94B524843698
:1031C00039F190E080E00E94B524843629F064E66D
:1031D00090E080E00E94BD241092A6021092A70207
:1031E0001092A8021092A9021092AA021092AB02A9
:1031F0001092AC021092AD021092AE021092AF0289
:103200001092B0021092B1028AE090E00E941F1268
:103210008FE00E9429098C0180E10E942909880F12
:10322000991F080F191F81E10E942909880F991F12
:10323000880F991F080F191F82E10E94290953E086
:10324000880F991F5A95E1F7080F191F0B301105C8
:1032500009F4A1C15CF40730110509F4A9C18FEF8D
:1032600090E090939E0280939D0217C00D3011054F
:1032700009F484C10E30110591F781E090E090933C
:103280009E0280939D02909365048093640466E49B
:1032900071E087ED93E00E94111300919D0210915F
:1032A0009E02C8010197029708F098C161E089E089
:1032B0000E94A80961E08BE00E94A80961E08AE011
:1032C0000E94A80961E088E00E94A8090E94800984
:1032D00061E088E00E94520960E088E00E945209A3
:1032E00061E08BE00E94520960E08BE00E9452098D
:1032F00061E08AE00E94520960E08AE00E9452097F
:103300008091990290919A02A0919B02B0919C02A7
:1033100080936E0490936F04A0937004B093710433
:103320000E944C120130110509F04FC18091A60294
:103330009091A702A091A802B091A902809366047F
:1033400090936704A0936804B093690460916E043D
:1033500070916F0480917004909171040E94BA0D75
:103360006AE070E080E090E00E94FE09789486E0D8
:10337000382E0E946F138091A102882309F441C363
:1033800061ED73E089E794E00E94611718861F825F
:103390001A8619861C861B8669E774E0CE0107969B
:1033A0000E9461171092860410928504109288047E
:1033B000109287046EE272E0CE0101960E941B1308
:1033C0008B859C85892B61F0EF80F88469817A81F7
:1033D000C7010E943B2A8C010E191F09892B11F489
:1033E0000FEF1FEFCE0101960E9417121016110663
:1033F0000CF050C260E471E0CE0101960E941B13F4
:103400008B859C850097D9F078018017910708F487
:103410007C01EF81F885EE0DFF1DC08010826F8169
:103420007885CE0101966115710509F42DC20E94BF
:1034300011138F819885E80EF91EF701C082BE0135
:103440006F5F7F4F8FE794E00E946312CE01019679
:103450000E941712B8016F5F7F4FCE0107960E943E
:10346000701562E671E0CE0101960E941B138B85F8
:103470009C85892B61F0EF80F88469817A81C7018E
:103480000E943B2A8C010E191F09892B11F40FEFA2
:103490001FEFCE0101960E94171260E471E0CE0189
:1034A00001960E941B138B859C850097D9F07801AB
:1034B0008017910708F47C01EF81F885EE0DFF1D60
:1034C000C08010826F817885CE01019661157105EB
:1034D00009F4DDC10E9411138F819885E80EF91E51
:1034E000F701C0822091870430918804329EC00188
:1034F000339E900D1124BE016F5F7F4F87579B4F06
:103500000E946312CE0101960E941712B8016F5FEC
:103510007F4FCE0107960E9470158091850490918F
:103520008604019690938604809385048091870495
:1035300090918804019690938804809387041016D4
:1035400011060CF48ECFCE0107960E94171200913F
:103550007F04109180040115110509F4A3C1F8013D
:1035600081918F01882309F49DC1082E000C990BCD
:103570000E940B2AF80131978083F1CF82E090E01E
:1035800090939E0280939D029093650480936404BF
:103590006DE471E07ECE83E090E090939E02809394
:1035A0009D02909365048093640464E571E071CE9C
:1035B0008FEF90E090939E0280939D02909365041C
:1035C000809364046BE571E064CE8091AA029091CF
:1035D000AB02A091AC02B091AD02B0CE03301105A8
:1035E00009F0BECE0E944C121092B7021092B602A1
:1035F00010920503109227030E94570A88EE97E065
:10360000909398028093970289EE97E090939602A8
:103610008093950280915B0491E0909304038093E2
:10362000260381E00E94960A8111FEC080E00E947C
:10363000520C90E0880F892F881F990B0197B1F3E6
:1036400062E987EB0E94050C80E498E7ADE7B1E002
:1036500080934A0490934B04A0934C04B0934D0480
:1036600060E070E0CB010E94DC1160E880E10E9424
:10367000050C60E881E10E94050C60E882E10E948F
:10368000050C60E883E10E94050C60E884E10E947B
:10369000050C60E885E10E94050C60E886E10E9467
:1036A000050C60E887E10E94050C6CE080E10E9457
:1036B000050C6CE081E10E94050C6CE082E10E9447
:1036C000050C6CE083E10E94050C6CE084E10E9433
:1036D000050C6CE085E10E94050C6CE086E10E941F
:1036E000050C6CE087E10E94050C10E000E020E092
:1036F00030E24FE550EA62E170E080E090E00E9445
:10370000100F01E010E020E030E24FE550EA62E106
:1037100070E080E090E00E94100F1092E70310929A
:10372000E6031092E9031092E8031092EB03109263
:10373000EA031092ED031092EC031092EF03109243
:10374000EE031092F1031092F00381E090E0909369
:10375000F3038093F2039093F5038093F40370E0F6
:1037600060E090E080E00E94800D70E060E081E029
:1037700090E00E94800D70E060E082E090E00E94A6
:10378000800D70E060E083E090E00E94800D70E0CA
:1037900060E084E090E00E94800D70E060E085E0F1
:1037A00090E00E94800D61E070E086E090E00E9471
:1037B000800D61E070E087E090E00E94800D60E0A5
:1037C00082EA0E94050C60E083EA0E94050C60E03A
:1037D00084EA0E94050C60E281EB0E94050C60E81F
:1037E00081EB0E94050C06EF13E09CE5C92E94E0E6
:1037F000D92EF12CE12CF801108211821282138251
:103800001482158216821782085F1F4F60E0C7017D
:103810000E943B0DF60111926F01FFEFEF1AFF0AB4
:1038200088E0E816F10439F76091AE027091AF02BA
:103830008091B0029091B1020E9437260E94DC1163
:1038400010E000E020E030E24FE550EA62E170E095
:1038500080E090E00E94100F20E030E048EC52E45D
:1038600060916E0470916F04809170049091710466
:103870000E94F4230E9400260E94DA0F61E090E08B
:1038800080E00E943B0D6CCD0E940512D2CD0E94BB
:10389000051222CEBE01695F7F4F8FE794E00E9440
:1038A000611751CE84E691E00E94D416882309F472
:1038B0008DC08FE691E00E94B11668EC70E080E068
:1038C00090E00E94FE096CE771E0CE0101960E9433
:1038D0001B1365EC74E0CE0101960E94ED160E9468
:1038E000BF16CE0101960E94171268EC70E080E0CE
:1038F00090E00E94FE0965E871E0CE0101960E9409
:103900001B1367ED73E0CE0101960E94ED160E9435
:10391000BF16CE0101960E94171268EC70E080E09D
:1039200090E00E94FE096FE871E0CE0101960E94CE
:103930001B1360919D0270919E02CE0101960E9420
:103940003117CE0101960E94BF1668EC70E080E04E
:1039500090E00E94FE0980919D0290919E0281302C
:103960009105E9F44090A6025090A7026090A80249
:103970007090A90267E971E0CE0101960E941113CF
:10398000B301A201CE0101960E940017CE0101965B
:103990000E94BF16CE0101960E94171230C08230DD
:1039A000910549F44090AA025090AB026090AC029D
:1039B0007090AD02DFCF0397E9F64090AE025090D1
:1039C000AF026090B0027090B102D4CF80EA91E073
:1039D0000E94D416882309F43FC06CE771E0CE0141
:1039E00001960E941B1365EC74E0CE0101960E94C3
:1039F000ED160E94BF16CE0101960E94171210927A
:103A0000A1020091A00210919F02011103C0112395
:103A100009F4AFCC80919D0290919E029C012150AF
:103A200031092230310508F006C260916E047091B0
:103A30006F0480917004909171040E94BA0D01117D
:103A40001092A002112309F494CC88E492E00E9421
:103A5000B11610929F028DCC88EA91E00E94D41694
:103A6000882349F065E871E0CE0101960E941B139E
:103A700067ED73E0BACF84EB91E00E94D4168823FF
:103A800079F06FE871E0CE0101960E941B136091FE
:103A90009D0270919E02CE0101960E94311776CF51
:103AA0008EEB91E00E94D416882389F010E000E0AC
:103AB00060E0C8010E94BD240F5F1F4F0115F4E0B4
:103AC0001F07B1F784EC91E00E94B11698CF83ED07
:103AD00091E00E94D416882301F18091890490918D
:103AE0008A040097B1F00E94711F6093990270934D
:103AF0009A0280939B0290939C0260936E04709351
:103B00006F04809370049093710481E080939F020E
:103B100076CF60E070E0CB01E8CF88ED91E00E94C5
:103B2000D416882301F18091890490918A0400972A
:103B3000B1F00E94711F6093990270939A02809372
:103B40009B0290939C0260936E0470936F04809329
:103B500070049093710481E08093A00250CF60E0E4
:103B600070E0CB01E8CF8EED91E00E94D41688235F
:103B7000C1F180919D0290919E029C0121503109DA
:103B80002230310598F46091990270919A028091E7
:103B90009B0290919C0260936E0470936F048093DB
:103BA0007004909371040E94BA0D29CF039709F015
:103BB00026CF20E030E048EC52E460916E04709132
:103BC0006F0480917004909171040E94F4230E940C
:103BD00000260E94DA0F61E090E080E00E943B0D39
:103BE0000ECF83EE91E00E94D416882329F18091B4
:103BF0009D0290919E029C01215031092230310595
:103C000060F410926E0410926F041092700410927F
:103C1000710460E070E0CB01C6CF039709F0EFCEEE
:103C200020E030E040E050E060E070E080E090E0D4
:103C30000E94DA0F60E0D0CF89EE91E00E94D416A6
:103C4000882319F00E948009DACE8FEE91E00E945D
:103C5000D4168823E9F08091890490918A04009712
:103C600099F00E94751F9B0177FF04C0222733271C
:103C7000261B370B2BB961E08DE00E94520960E0F2
:103C80008DE00E945209BBCE60E070E0CB01EBCF2B
:103C90008AEF91E00E94D4168823A9F10E944C1269
:103CA00080919D0290919E0281309105A9F48090AF
:103CB000A6029090A702A090A802B090A90267E97E
:103CC00071E0CE0101960E941B13B501A401CE0143
:103CD00001960E9400175ACE8230910549F48090D7
:103CE000AA029090AB02A090AC02B090AD02E7CFD8
:103CF000039729F78090AE029090AF02A090B00297
:103D0000B090B102DCCF85E092E00E94D416882307
:103D100009F442C08091890490918A04C12CD12C6D
:103D20007601009721F00E94711F6B017C01809148
:103D30009D0290919E028130910589F4C092A60265
:103D4000D092A702E092A802F092A902C092660463
:103D5000D0926704E0926804F092690450CE8230F9
:103D6000910549F4C092AA02D092AB02E092AC0253
:103D7000F092AD02EBCF039749F7C092AE02D0921A
:103D8000AF02E092B002F092B102C701B6010E9408
:103D900037260E94DC11DACF8CE092E00E94D41624
:103DA000882339F08AE090E00E941F1284E192E0BB
:103DB0008BCE8EE192E00E94D416882309F41FCEA8
:103DC0000E944C1288E292E00E9496156091A60231
:103DD0007091A7028091A8029091A9020E94E71514
:103DE00080E392E00E9496156091AA027091AB0266
:103DF0008091AC029091AD020E94E71588E392E0B9
:103E00000E9496156091AE027091AF028091B0024F
:103E10009091B1020E94E71580E492E00E9496150D
:103E20006091B2027091B3028091B4029091B50298
:103E30000E94E715E4CD039709F001CE20E030E0C1
:103E400048EC52E460916E0470916F0480917004AC
:103E5000909171040E94F4230E9400260E94DA0FC0
:103E6000EECDCF93DF9381ED93E00E94171287EDA3
:103E700093E00E941712C5ECD4E02697CE010E9471
:103E8000171284E0C938D807C1F78FE794E00E9481
:103E9000171289E794E00E94171285EC94E0DF91F5
:103EA000CF910C941712EF920F931F93CF93DF9340
:103EB000E80134E047FD34E1042E000C550B57FFB8
:103EC00003C0519541955109E32E022F242FAE01D5
:103ED0000E94D61FCE01DF91CF911F910F91EF90DD
:103EE0000895662777270C9435211F93FC019927A5
:103EF0008827BC01E89411911032E9F3193010F0D1
:103F00001E30C8F31B3251F01D3249F4689406C0CC
:103F10000E94A71F610F711D811D911D11911053EA
:103F20001A30B0F33EF490958095709561957F4F6F
:103F30008F4F9F4F1F910895BB274A3031F499232B
:103F400022F4BDE2909581959F4F0C94BD1F592F8F
:103F5000482F372F262F660F771F881F991F660F50
:103F6000771F881F991F620F731F841F951F660F8D
:103F7000771F881F991F0895BB27FB015527AA2784
:103F8000880F991FAA1FA41710F0A41B83955051E6
:103F9000B9F7A05DAA3308F0A95DA193009779F75E
:103FA000B111B1931192CB010C947E23A9E0B0E042
:103FB000ECEDFFE10C94DC246A01F22EB02E102F00
:103FC000FBE3AF2EA01608F41BE31F5F012F27E0D1
:103FD000AE014F5F5F4F0E948522BC018981982FFF
:103FE0009970913009F43FC09BE2E1FC04C09E2D22
:103FF0009170E0FC3AC05E2D5071E82FE87083FFAD
:1040000046C084E0911101C083E0EF2DE81B8F15BD
:1040100008F0E0E0D6018E2F20E2552351F19923DC
:1040200029F0D6019C93C60101966C0196012D5F83
:104030003F4FE2FE24C08EE4D6018C9391E41196AA
:104040009C93119712968C93D9018E2F90E2811137
:104050001BC0E20FF32FF11D10828EEF9FEF299608
:10406000ECE00C94F8249DE2C6CF90E2C4CF2D93EF
:1040700081508111FCCFCE0ED11CE0E0D0CF8EE676
:10408000D6018C9391E6DBCF9D938150E0CF482FF2
:10409000447082FF3DC084E0911101C083E08F1520
:1040A00010F4EF2DE81BD6018E2F20E2552309F1E5
:1040B000992329F0D6019C93C60101966C019601C3
:1040C0002D5F3F4FE2FE1BC089E4D6018C938EE446
:1040D00011968C93119786E412968C93D9018E2FAA
:1040E00090E2882309F4B5CF9D938150FACF2D93A8
:1040F00081508111FCCFCE0ED11CE0E0D9CF89E6F2
:10410000D6018C938EE611968C93119786E6E4CFB8
:104110009B0177FF02C030E020E0A1E0B0E0911108
:1041200002C0B0E0A0E0F9013196AE0FBF1F8B2CAA
:10413000912CBB2009F461C05401EFEFAE1ABE0A06
:10414000AA0DBB1DFA161B0619F014F04F2D4A1BC1
:10415000511188C0E3FC59C07601A42FB0E2A1112F
:104160004FC0C40ED11C992309F45BC040E0D601B6
:104170001196F60190836D01552309F448C0012F73
:10418000060F9A81582F507184FF03C0913309F4B0
:10419000015010160CF047C0093008F008E0EEE2BC
:1041A000FE2E5B01A01AB1088501919481949108BB
:1041B0002F3F320729F4D601FC92F60131966F01A8
:1041C0006217730794F1021713077CF5DB01A21B3A
:1041D000B30BAA24A394B12CAC0EBD1EAA0DBB1D1B
:1041E00011968C9121503109D60111962815390567
:1041F000F4F0F60180836D01DBCFB12CA12CA0CFB0
:10420000F701B1937F01A150AACF9111B0CFD60190
:10421000942F50E302C05D9391509111FCCFC40ED6
:10422000D11C40E0ACCF01E0BACF80E3DBCF621716
:10423000730731F4963388F4953311F4552369F0FC
:10424000F6018083FD01842F90E2811108C0A40F44
:10425000B11D1C9290E080E002CF81E3F1CF9193F9
:104260008150F3CF911183CF8ACFB0E0A0E0EBE390
:10427000F1E20C94DC245C017B016115710519F0FD
:10428000DB018D939C9385010F5F1F4FF501D0815A
:104290008D2F90E00E945D236C01892BB9F5DD32F2
:1042A000B9F50F5F1F4FD5011196DC91C1E05801A0
:1042B000F1E0AF1AB10843E050E060E770E0C501FB
:1042C0000E946623892B69F5680182E0C80ED11C23
:1042D00045E050E06BE670E0C6010E946623892B42
:1042E00021F4680197E0C90ED11CE114F10419F022
:1042F000D701CD92DC9260E070E080E89FEFC111C1
:10430000FFC060E070E080E89FE7FAC05801BBCFD3
:10431000DB3229F485010E5F1F4FF501D181C0E02A
:10432000C6CF43E050E068E670E0C5010E94662316
:10433000892BE9F0F80110E000E020E030E0A9016D
:104340005F01B0ED8B2E8D0E89E08815C8F19C2E93
:10435000689491F88C2F8870C2FF16C0811102C03A
:104360000F5F1F4F3196D501DC91C92DE9CFE114C4
:10437000F10429F00E5F1F4FF7011183008360E005
:1043800070E080EC9FE7BCC0882311F00150110958
:10439000A5E0B0E00E94CB249B01AC01220F331FAB
:1043A000441F551F280D311D411D511D283999E904
:1043B0003907490799E15907A8F2C6609C2ED2CF68
:1043C000AEEF8A1206C0C3FD3CC09C2E689493F8E1
:1043D000C9CFDF7DD534A9F580818D3239F4C06134
:1043E000DF011296818162E070E006C0DF018B324E
:1043F000C1F3119661E070E080535D01A61AB70A1F
:104400008A30F8F4E0E8CE16ECE0DE065CF4B601A3
:10441000660F771F660F771FC60ED71ECC0CDD1CEC
:10442000C80ED11C5D01FFEFAF1ABF0A8C918053FB
:104430008A30A8F1C4FF03C0D194C194D1080C0DF7
:104440001D1DC1FF09C0E114F10431F081E0A81A7B
:10445000B108D701AD92BC92CA01B9010E94932361
:10446000C370C33009F490584B015C0120E030E088
:10447000A9010E948E23882309F440C0CFE9D0E02F
:1044800017FF05C0119501951109C7E8D0E06E012D
:10449000B8E1CB1AD10880E2E82EF12C0FC0D5018B
:1044A000B1CFFE0125913591459154910E191F0907
:1044B000C501B4010E94F4234B015C01D501C40184
:1044C0000E151F0574F72497F594E794CC16DD06B6
:1044D000A9F78A2F880F8B2F881F8F3F49F020E084
:1044E00030E0A901C501B4010E948E23811106C0EC
:1044F00082E290E09093CC048093CB04C501B40198
:10450000CDB7DEB7ECE00C94F824283008F027E0B3
:104510003327DA01990F311D87FD916000966105FF
:10452000710539F432602E5F3D9330E32A95E1F74F
:1045300008959F3F30F080387105610509F03C5FB8
:104540003C5F3D93913008F08068911DDF93CF93DD
:104550001F930F93FF92EF92192F987F9695E92F53
:1045600096959695E90FFF27E350FF4F992733273C
:10457000EE24FF24A701E70105900894079428F48E
:10458000360FE71EF81E491F511D660F771F881F43
:10459000991F0694A1F70590079428F4E70EF81EDA
:1045A000491F561FC11D770F881F991F661F06944C
:1045B000A1F70590079428F4F80E491F561FC71F4E
:1045C000D11D880F991F661F771F0694A1F70590CC
:1045D000079420F4490F561FC71FD81F990F661F55
:1045E000771F881F0694A9F784911095177041F0E2
:1045F000D695C79557954795F794E7941A95C1F7BF
:10460000E3EAF0E0689415901591359165919591E4
:1046100005907FE27395E118F10A430B560BC90B25
:10462000D009C0F7E10CF11E431F561FC91FD01D52
:104630007EF4703311F48A95E6CFE894015030F09F
:10464000080F0AF40027021708F4202F2395022FE1
:104650007A3328F079E37D932A95E9F710C07D93AA
:104660002A9589F606949795679537951795179427
:10467000E118F10A430B560BC90BD00998F02395AA
:104680007E9173957A3308F070E37C932013B8F72A
:104690007E9170617D9330F0839571E37D9370E33B
:1046A0002A95E1F71124EF90FF900F911F91CF9180
:1046B000DF91992787FD9095089591110C946124BD
:1046C000803219F089508550C8F70895FB01DC014C
:1046D0004150504088F08D9181341CF08B350CF4A2
:1046E000805E659161341CF06B350CF4605E861B56
:1046F000611171F3990B0895881BFCCFDC01FC015B
:10470000672F71917723E1F7329704C07C916D9305
:1047100070836291AE17BF07C8F308950E94D0233B
:1047200008F481E00895E89409C097FB3EF4909561
:104730008095709561957F4F8F4F9F4F9923A9F07A
:10474000F92F96E9BB279395F69587957795679509
:10475000B795F111F8CFFAF4BB0F11F460FF1BC04D
:104760006F5F7F4F8F4F9F4F16C0882311F096E9E0
:1047700011C0772321F09EE8872F762F05C066238E
:1047800071F096E8862F70E060E02AF09A95660F47
:10479000771F881FDAF7880F9695879597F9089500
:1047A000990F0008550FAA0BE0E8FEEF1616170642
:1047B000E807F907C0F012161306E407F50798F0AA
:1047C000621B730B840B950B39F40A2661F0232BC3
:1047D000242B252B21F408950A2609F4A140A6953F
:1047E0008FEF811D811D08950E9407240C947B2466
:1047F0000E946D2438F00E94742420F0952311F05B
:104800000C9464240C946A2411240C94AF240E9408
:104810008C2470F3959FC1F3950F50E0551F629F54
:10482000F001729FBB27F00DB11D639FAA27F00D09
:10483000B11DAA1F649F6627B00DA11D661F829F30
:104840002227B00DA11D621F739FB00DA11D621F15
:10485000839FA00D611D221F749F3327A00D611D32
:10486000231F849F600D211D822F762F6A2F112414
:104870009F5750409AF0F1F088234AF0EE0FFF1F47
:10488000BB1F661F771F881F91505040A9F79E3F9E
:10489000510580F00C9464240C94AF245F3FE4F342
:1048A000983ED4F3869577956795B795F795E795F4
:1048B0009F5FC1F7FE2B880F911D9695879597F9FD
:1048C000089599278827089597F99F6780E870E0F1
:1048D00060E008959FEF80EC089500240A94161676
:1048E000170618060906089500240A9412161306DE
:1048F000140605060895092E0394000C11F488236C
:1049000052F0BB0F40F4BF2B11F460FF04C06F5F87
:104910007F4F8F4F9F4F089557FD9058440F551F5D
:1049200059F05F3F71F04795880F97FB991F61F031
:104930009F3F79F087950895121613061406551FA8
:10494000F2CF4695F1DF08C0161617061806991F14
:10495000F1CF86957105610508940895E894BB2709
:1049600066277727CB0197F90895F999FECF92BD75
:1049700081BDF89A992780B50895262FF999FECF21
:104980001FBA92BD81BD20BD0FB6F894FA9AF99A6C
:104990000FBE019608950E940D25A59F900DB49F0E
:1049A000900DA49F800D911D112408952F923F9288
:1049B0004F925F926F927F928F929F92AF92BF922F
:1049C000CF92DF92EF92FF920F931F93CF93DF93DB
:1049D000CDB7DEB7CA1BDB0B0FB6F894DEBF0FBE38
:1049E000CDBF09942A88398848885F846E847D8485
:1049F0008C849B84AA84B984C884DF80EE80FD8087
:104A00000C811B81AA81B981CE0FD11D0FB6F894FC
:104A1000DEBF0FBECDBFED010895A29FB001B39FD1
:104A2000C001A39F700D811D1124911DB29F700DB7
:104A3000811D1124911D08955058BB27AA270E945B
:104A400034250C947B240E946D2438F00E94742439
:104A500020F039F49F3F19F426F40C946A240EF4E4
:104A6000E095E7FB0C946424E92F0E948C2458F312
:104A7000BA17620773078407950720F079F4A6F543
:104A80000C94AE240EF4E0950B2EBA2FA02D0B0142
:104A9000B90190010C01CA01A0011124FF27591B83
:104AA00099F0593F50F4503E68F11A16F040A22F89
:104AB000232F342F4427585FF3CF469537952795FA
:104AC000A795F0405395C9F77EF41F16BA0B620BF9
:104AD000730B840BBAF09150A1F0FF0FBB1F661F40
:104AE000771F881FC2F70EC0BA0F621F731F841F83
:104AF00048F4879577956795B795F7959E3F08F0A9
:104B0000B0CF9395880F08F09927EE0F979587956A
:104B100008950E949D250C947B240E94742458F0D3
:104B20000E946D2440F029F45F3F29F00C94642426
:104B300051110C94AF240C946A240E948C2468F3C5
:104B40009923B1F3552391F3951B550BBB27AA2746
:104B500062177307840738F09F5F5F4F220F331F80
:104B6000441FAA1FA9F335D00E2E3AF0E0E832D048
:104B700091505040E695001CCAF72BD0FE2F29D04B
:104B8000660F771F881FBB1F261737074807AB071D
:104B9000B0E809F0BB0B802DBF01FF2793585F4F92
:104BA0003AF09E3F510578F00C9464240C94AF24A5
:104BB0005F3FE4F3983ED4F3869577956795B79574
:104BC000F7959F5FC9F7880F911D9695879597F97F
:104BD0000895E1E0660F771F881FBB1F62177307F8
:104BE0008407BA0720F0621B730B840BBA0BEE1F0D
:104BF00088F7E0950895BEE304D008F490E808959E
:104C0000BFE322273327A9010E94942460F19F5714
:104C100048F1B91740F1BFE3B91B9927B8503AF4EE
:104C2000660F771F881F991FB395D2F316C0B8502F
:104C30004AF0232F342F452F562F672F782F8827A0
:104C4000B850BAF7B85F49F086957795679557954C
:104C5000479537952795BA95B9F716F40E946D26B2
:104C600088940895889460E070E0CB0108950E94D4
:104C70003E266894B1110C94AF2408950E949424A8
:104C800088F09F5798F0B92F9927B751B0F0E1F00D
:104C9000660F771F881F991F1AF0BA95C9F714C0BD
:104CA000B13091F00E94AE24B1E008950C94AE248E
:104CB000672F782F8827B85F39F0B93FCCF38695F6
:104CC00077956795B395D9F73EF490958095709553
:104CD00061957F4F8F4F9F4F089590958095709568
:104CE000609550954095309521953F4F4F4F5F4FC0
:104CF0006F4F7F4F8F4F9F4F08950E94D02308F42E
:104D00008FEF08950E94D023880B990B0895A1E29C
:104D10001A2EAA1BBB1BFD010DC0AA1FBB1FEE1F35
:104D2000FF1FA217B307E407F50720F0A21BB30B80
:104D3000E40BF50B661F771F881F991F1A9469F7FC
:104D400060957095809590959B01AC01BD01CF0158
:104D50000895DF93CF931F930F939A9DF02D219F7A
:104D6000F00D8B9DF00D8A9DE02DF10D039FF00D50
:104D7000029FE00DF11D4E9DE00DF11D5E9DF00DB9
:104D80004F9DF00D7F936F93BF92AF925F934F93C0
:104D9000D5010E940D258B01AC01D7010E940D2584
:104DA000EB01E80FF91FD6010E94F8262F913F91E1
:104DB000D6010E940D25C60FD71FE81FF91FAF911E
:104DC000BF910E94F8262F913F910E940D25C60F9A
:104DD000D71FE81FF91FD6010E940D25E60FF71F08
:104DE0009801BE01CF010F911F91CF91DF910895DE
:104DF0000E940D25460F571FC81FD91F08F4319672
:104E00000895E894DF93CF93FC01DB010E940D2508
:104E10007F936F93E9019A01AC01BF93AF933F93E6
:104E20002F93DF010E940D2526F46C1B7D0B820B56
:104E3000930B9E01EB01FC010E94F826AF91BF91FC
:104E40002F913F910E94F826BE01CF01F9012F91C9
:104E50003F91CF91DF910895689401C0E894F92FB4
:104E6000F12B12F00C946027A0E0B0E0EAE3F7E247
:104E70000C94DC24092E059422F40E94BC271123F3
:104E800092F4F0E80F26FFEFE094F094009510956F
:104E9000B094C094D094A194BF0ACF0ADF0AEF0A5D
:104EA000FF0A0F0B1F0B0E946B2707FC0E94BC27F9
:104EB000CDB7DEB7ECE00C94F824689401C0E89418
:104EC0008F929F92CF93DF930E946B27DF91CF91B8
:104ED0009F908F90089588249924F401E401B0E410
:104EE0009F93AA279A158B049C04ED05FE05CF0518
:104EF000D007A10798F4AD2FDC2FCF2FFE2FE92D7F
:104F0000982C892E982F872F762F652F542F432F7B
:104F1000322F2227B85031F7BF9127C01B2EBF91E7
:104F2000BB27220F331F441F551F661F771F881F83
:104F3000991F881C991CEE1FFF1FCC1FDD1FAA1F85
:104F4000BB1F8A149B04EC05FD05CE05DF05A007F9
:104F5000B10748F08A189B08EC09FD09CE09DF0962
:104F6000A00BB10B21601A94E1F62EF49401AF016D
:104F7000BE01CD01000C08956095709580959095C7
:104F800030954095509521953F4F4F4F5F4F6F4F54
:104F90007F4F8F4F9F4F0895002E083090F0982F2D
:104FA000872F762F652F542F432F322F222708501B
:104FB000F4CF220F331F441F551F661F771F881F12
:104FC000991F0A95B2F7002D089597FD1094002EB1
:104FD000083098F00850232F342F452F562F672F75
:104FE000782F892F912DF4CF1594979587957795E4
:104FF000679557954795379527950A95AAF71124F0
:10500000002D08952A0D3B1D4C1D5D1D6E1D7F1D3D
:10501000801F911F08950024A7FD00942A0F301DC2
:10502000401D501D601D701D801D901D08950024A1
:10503000A7FD00942A17300540055005600570054E
:10504000800590050895EE0FFF1F0590F491E02D67
:1050500009940F931F93CF93DF938230910510F43F
:1050600082E090E0E091CF04F091D00430E020E0C5
:10507000B0E0A0E0309799F42115310509F44AC059
:10508000281B390B24303105D8F58A819B816115A5
:10509000710589F1FB0193838283FE0111C0408178
:1050A00051810281138148175907E0F048175907C9
:1050B00099F4109761F012960C93129713961C9323
:1050C0003296CF01DF91CF911F910F9108950093F8
:1050D000CF041093D004F4CF2115310551F04217BD
:1050E000530738F0A901DB019A01BD01DF01F80186
:1050F000C1CFEF01F9CF9093D0048093CF04CDCFEF
:10510000FE01E20FF31F81939193225031093983FD
:105110002883D7CF2091CD043091CE04232B41F4A6
:1051200020910201309103013093CE042093CD04ED
:1051300020910001309101012115310541F42DB775
:105140003EB74091040150910501241B350BE091BD
:10515000CD04F091CE04E217F307A0F42E1B3F0B11
:105160002817390778F0AC014E5F5F4F24173507D9
:1051700048F04E0F5F1F5093CE044093CD048193AF
:1051800091939FCFF0E0E0E09CCFCF93DF93009727
:10519000E9F0FC01329713821282A091CF04B09102
:1051A000D004ED0130E020E01097A1F4208131819E
:1051B000820F931F2091CD043091CE042817390718
:1051C00009F061C0F093CE04E093CD04DF91CF915C
:1051D0000895EA01CE17DF07E8F54A815B819E0159
:1051E00041155105B1F7E901FB83EA8349915991D2
:1051F000C40FD51FEC17FD0761F4808191810296E1
:10520000840F951FE90199838883828193819B8311
:105210008A83F0E0E0E012968D919C9113970097BD
:10522000B9F52D913C911197CD010296820F931FF4
:105230002091CD043091CE042817390739F63097E4
:1052400051F51092D0041092CF04B093CE04A093E5
:10525000CD04BCCFD383C28340815181840F951F7D
:10526000C817D90761F44E5F5F4F88819981480F55
:10527000591F518340838A819B81938382832115A7
:10528000310509F0B0CFF093D004E093CF049ECF66
:10529000FD01DC01C0CF13821282D7CFB0E0A0E0C5
:1052A000E4E5F9E20C94D8248C01009751F4CB0189
:1052B0000E9429288C01C801CDB7DEB7E0E10C942B
:1052C000F424FC01E60FF71F9C0122503109E2177C
:1052D000F30708F49DC0D901CD91DC911197C61751
:1052E000D70798F0C530D10530F3CE010497861763
:1052F000970708F3C61BD70B2297C193D1936D93E1
:105300007C93CF010E94C528D6CF5B01AC1ABD0AA1
:105310004C018C0E9D1EA091CF04B091D004512C55
:10532000412CF12CE12C109731F58091CD04909116
:10533000CE048815990509F05CC04616570608F09A
:1053400058C08091000190910101009741F48DB700
:105350009EB74091040150910501841B950BE817FD
:10536000F90708F055C0F093CE04E093CD04F9019D
:1053700071836083A0CF8D919C91119712966C9050
:10538000129713967C901397A815B90559F56C01DF
:1053900042E0C40ED11CCA14DB0420F1AC014A194E
:1053A0005B09DA011296159780F06282738251834D
:1053B0004083D9016D937C93E114F10471F0D7011E
:1053C0001396FC93EE93129776CF22968C0F9D1F27
:1053D000F90191838083F301EFCFF093D004E09340
:1053E000CF0469CF4816590608F42C017D01D3017A
:1053F0009ACFCB010E9429287C01009749F0AE0189
:10540000B8010E94132AC8010E94C528870153CF02
:1054100010E000E050CF9111089581568A5108F4B0
:10542000805285580895FB01DC0102C001900D9265
:1054300041505040D8F70895FB01DC018D91019057
:1054400080190110D9F3990B0895FB01DC0101903B
:105450000D920020E1F70895FB01DC01415050401E
:1054600048F001900D920020C9F701C01D924150F3
:105470005040E0F70895FB0151915523A9F0BF0179
:10548000DC014D9145174111E1F759F4CD0101902F
:10549000002049F04D9140154111C9F3FB01411124
:1054A000EFCF81E090E00197089510E0CDEFD0E0DC
:1054B00004C0FE010E9423282196CE3FD107C9F7E0
:1054C000F894FFCF0000D10480002C343C444C54AD
:1054D0005C5C000000009308BB07EA07E0085B087B
:1054E000F9074D0800000000D60BA90B4F0C860BE6
:1054F0002801960B870B6E616E00696E66006F76F1
:1055000066000D0A0056322E3000414439383530DD
:105510000041443938353100534935333531004382
:105520007573746F6D002C00434F4E4E4543545FAE
:1055300054470054475F434F4E4E45435445440043
:1055400056455253494F4E3D0047454E5F4E414DE3
:10555000453D0047454E5F49443D0050504D545233
:10556000494D3D0056455253494F4E00474554471B
:10557000454E5F4E414D450047455447454E5F49B6
:105580004400434C45415200454550524F4D206325
:105590006C65617265640053594E430053504F541B
:1055A000460052464F4E0052464F46460052455323
:1055B0004554004F55545055545F44424D004745A3
:1055C0005450504D5452494D0053455450504D0085
:1055D0005341564550504D0050504D5F5341564534
:1055E000440044554D505F50504D530041443938AC
:1055F00035303D004144393835313D00534935336C
:1056000035313D00435553544F4D3D0041434B0010
:107E0000112484B714BE81FFF0D085E080938100F7
:107E100082E08093C00088E18093C10086E0809377
:107E2000C20080E18093C4008EE0C9D0259A86E02C
:107E300020E33CEF91E0309385002093840096BBD3
:107E4000B09BFECF1D9AA8958150A9F7CC24DD24C4
:107E500088248394B5E0AB2EA1E19A2EF3E0BF2EE7
:107E6000A2D0813461F49FD0082FAFD0023811F036
:107E7000013811F484E001C083E08DD089C08234E0
:107E800011F484E103C0853419F485E0A6D080C0E4
:107E9000853579F488D0E82EFF2485D0082F10E0AE
:107EA000102F00270E291F29000F111F8ED06801E7
:107EB0006FC0863521F484E090D080E0DECF843638
:107EC00009F040C070D06FD0082F6DD080E0C81688
:107ED00080E7D80618F4F601B7BEE895C0E0D1E017
:107EE00062D089930C17E1F7F0E0CF16F0E7DF06D8
:107EF00018F0F601B7BEE89568D007B600FCFDCFD4
:107F0000A601A0E0B1E02C9130E011968C91119780
:107F100090E0982F8827822B932B1296FA010C0160
:107F200087BEE89511244E5F5F4FF1E0A038BF0790
:107F300051F7F601A7BEE89507B600FCFDCF97BE46
:107F4000E89526C08437B1F42ED02DD0F82E2BD052
:107F50003CD0F601EF2C8F010F5F1F4F84911BD097
:107F6000EA94F801C1F70894C11CD11CFA94CF0C13
:107F7000D11C0EC0853739F428D08EE10CD085E9AC
:107F80000AD08FE07ACF813511F488E018D01DD067
:107F900080E101D065CF982F8091C00085FFFCCF94
:107FA0009093C60008958091C00087FFFCCF809118
:107FB000C00084FD01C0A8958091C6000895E0E648
:107FC000F0E098E1908380830895EDDF803219F02E
:107FD00088E0F5DFFFCF84E1DECF1F93182FE3DFCA
:107FE0001150E9F7F2DF1F91089580E0E8DFEE27F6
:047FF000FF270994CA
:027FFE00040479
:00000001FF
